{
  "contractName": "LakeLifeContract",
  "abi": [
    {
      "constant": true,
      "inputs": [
        {
          "name": "",
          "type": "uint256"
        }
      ],
      "name": "lakeRecord",
      "outputs": [
        {
          "name": "lakeAreaSqrFt",
          "type": "uint256"
        },
        {
          "name": "lakeCapacity",
          "type": "uint256"
        },
        {
          "name": "lakeDepth",
          "type": "uint256"
        },
        {
          "name": "isLakeRecord",
          "type": "bool"
        }
      ],
      "payable": false,
      "stateMutability": "view",
      "type": "function"
    },
    {
      "constant": true,
      "inputs": [],
      "name": "owner",
      "outputs": [
        {
          "name": "",
          "type": "address"
        }
      ],
      "payable": false,
      "stateMutability": "view",
      "type": "function"
    },
    {
      "constant": false,
      "inputs": [
        {
          "name": "newOwner",
          "type": "address"
        }
      ],
      "name": "transferOwnership",
      "outputs": [],
      "payable": false,
      "stateMutability": "nonpayable",
      "type": "function"
    },
    {
      "constant": true,
      "inputs": [
        {
          "name": "lakeID",
          "type": "uint256"
        }
      ],
      "name": "isLakeRecordExisting",
      "outputs": [
        {
          "name": "isIndeed",
          "type": "bool"
        }
      ],
      "payable": false,
      "stateMutability": "view",
      "type": "function"
    },
    {
      "constant": false,
      "inputs": [
        {
          "name": "lakeID",
          "type": "uint256"
        },
        {
          "name": "lakeAreaSqrFt",
          "type": "uint256"
        },
        {
          "name": "lakeCapacity",
          "type": "uint256"
        },
        {
          "name": "lakeDepth",
          "type": "uint256"
        }
      ],
      "name": "newLakeRecord",
      "outputs": [
        {
          "name": "success",
          "type": "bool"
        }
      ],
      "payable": false,
      "stateMutability": "nonpayable",
      "type": "function"
    },
    {
      "constant": false,
      "inputs": [
        {
          "name": "lakeID",
          "type": "uint256"
        }
      ],
      "name": "deleteLakeRecord",
      "outputs": [
        {
          "name": "success",
          "type": "bool"
        }
      ],
      "payable": false,
      "stateMutability": "nonpayable",
      "type": "function"
    },
    {
      "constant": false,
      "inputs": [
        {
          "name": "lakeID",
          "type": "uint256"
        },
        {
          "name": "lakeAreaSqrFt",
          "type": "uint256"
        },
        {
          "name": "lakeCapacity",
          "type": "uint256"
        },
        {
          "name": "lakeDepth",
          "type": "uint256"
        }
      ],
      "name": "updateEntity",
      "outputs": [
        {
          "name": "success",
          "type": "bool"
        }
      ],
      "payable": false,
      "stateMutability": "nonpayable",
      "type": "function"
    },
    {
      "constant": true,
      "inputs": [
        {
          "name": "lakeID",
          "type": "uint256"
        }
      ],
      "name": "getLakeRecord",
      "outputs": [
        {
          "name": "",
          "type": "uint256"
        },
        {
          "name": "",
          "type": "uint256"
        },
        {
          "name": "",
          "type": "uint256"
        }
      ],
      "payable": false,
      "stateMutability": "view",
      "type": "function"
    },
    {
      "constant": true,
      "inputs": [],
      "name": "getLakeRecordNum",
      "outputs": [
        {
          "name": "",
          "type": "uint256"
        }
      ],
      "payable": false,
      "stateMutability": "view",
      "type": "function"
    },
    {
      "constant": false,
      "inputs": [],
      "name": "killContract",
      "outputs": [],
      "payable": false,
      "stateMutability": "nonpayable",
      "type": "function"
    }
  ],
  "bytecode": "0x6080604052336000806101000a81548173ffffffffffffffffffffffffffffffffffffffff021916908373ffffffffffffffffffffffffffffffffffffffff1602179055506107f8806100536000396000f3006080604052600436106100a4576000357c0100000000000000000000000000000000000000000000000000000000900463ffffffff168063085fe243146100a95780631c02708d146101035780635e8207b01461011a57806360f71d3014610169578063637421b3146101945780638da5cb5b146101f7578063c54e9b481461024e578063cbf396ab146102b1578063d46290a4146102f6578063f2fde38b1461033b575b600080fd5b3480156100b557600080fd5b506100d46004803603810190808035906020019092919050505061037e565b604051808581526020018481526020018381526020018215151515815260200194505050505060405180910390f35b34801561010f57600080fd5b506101186103bb565b005b34801561012657600080fd5b5061014560048036038101908080359060200190929190505050610450565b60405180848152602001838152602001828152602001935050505060405180910390f35b34801561017557600080fd5b5061017e6104a7565b6040518082815260200191505060405180910390f35b3480156101a057600080fd5b506101dd600480360381019080803590602001909291908035906020019092919080359060200190929190803590602001909291905050506104b1565b604051808215151515815260200191505060405180910390f35b34801561020357600080fd5b5061020c610566565b604051808273ffffffffffffffffffffffffffffffffffffffff1673ffffffffffffffffffffffffffffffffffffffff16815260200191505060405180910390f35b34801561025a57600080fd5b506102976004803603810190808035906020019092919080359060200190929190803590602001909291908035906020019092919050505061058b565b604051808215151515815260200191505060405180910390f35b3480156102bd57600080fd5b506102dc60048036038101908080359060200190929190505050610659565b604051808215151515815260200191505060405180910390f35b34801561030257600080fd5b5061032160048036038101908080359060200190929190505050610686565b604051808215151515815260200191505060405180910390f35b34801561034757600080fd5b5061037c600480360381019080803573ffffffffffffffffffffffffffffffffffffffff16906020019092919050505061072e565b005b60026020528060005260406000206000915090508060000154908060010154908060020154908060030160009054906101000a900460ff16905084565b6000809054906101000a900473ffffffffffffffffffffffffffffffffffffffff1673ffffffffffffffffffffffffffffffffffffffff163373ffffffffffffffffffffffffffffffffffffffff1614151561041657600080fd5b6000809054906101000a900473ffffffffffffffffffffffffffffffffffffffff1673ffffffffffffffffffffffffffffffffffffffff16ff5b60008060006002600085815260200190815260200160002060000154600260008681526020019081526020016000206001015460026000878152602001908152602001600020600201549250925092509193909250565b6000600154905090565b60006104bc85610659565b1515156104c857600080fd5b60016000815480929190600101919050555083600260008781526020019081526020016000206000018190555082600260008781526020019081526020016000206001018190555081600260008781526020019081526020016000206002018190555060016002600087815260200190815260200160002060030160006101000a81548160ff02191690831515021790555060019050949350505050565b6000809054906101000a900473ffffffffffffffffffffffffffffffffffffffff1681565b60008060009054906101000a900473ffffffffffffffffffffffffffffffffffffffff1673ffffffffffffffffffffffffffffffffffffffff163373ffffffffffffffffffffffffffffffffffffffff161415156105e857600080fd5b6105f185610659565b15156105fc57600080fd5b83600260008781526020019081526020016000206000018190555082600260008781526020019081526020016000206001018190555081600260008781526020019081526020016000206002018190555060019050949350505050565b60006002600083815260200190815260200160002060030160009054906101000a900460ff169050919050565b60008060009054906101000a900473ffffffffffffffffffffffffffffffffffffffff1673ffffffffffffffffffffffffffffffffffffffff163373ffffffffffffffffffffffffffffffffffffffff161415156106e357600080fd5b6001600081548092919060019003919050555060016002600084815260200190815260200160002060030160006101000a81548160ff02191690831515021790555060019050919050565b6000809054906101000a900473ffffffffffffffffffffffffffffffffffffffff1673ffffffffffffffffffffffffffffffffffffffff163373ffffffffffffffffffffffffffffffffffffffff1614151561078957600080fd5b806000806101000a81548173ffffffffffffffffffffffffffffffffffffffff021916908373ffffffffffffffffffffffffffffffffffffffff160217905550505600a165627a7a72305820326425f7700ba3da0cd422e4124dd9fccf8d636826c8f6fbdb116c7279284d1f0029",
  "source": "pragma solidity ^0.4.17;\r\n\r\ncontract Owned {\r\n    address public owner;\r\n\r\n    constructor() public {\r\n        owner = msg.sender;\r\n    }\r\n\r\n    modifier onlyOwner {\r\n        require(msg.sender == owner);\r\n        _;\r\n    }\r\n\r\n    function transferOwnership(address newOwner) public onlyOwner {\r\n        owner = newOwner;\r\n    }\r\n}\r\n\r\ncontract LakeLifeContract is Owned {\r\n\r\n    struct LakeRecord {\r\n        uint256 lakeAreaSqrFt;\r\n        uint256 lakeCapacity;\r\n        uint256 lakeDepth;\r\n        bool isLakeRecord;\r\n    }\r\n\r\n    uint numLakeRecord;\r\n\r\n    mapping (uint => LakeRecord) public lakeRecord;\r\n\r\n    function isLakeRecordExisting(uint lakeID) public constant returns(bool isIndeed) {\r\n        return lakeRecord[lakeID].isLakeRecord;\r\n    }\r\n\r\n    function newLakeRecord(uint lakeID, uint256 lakeAreaSqrFt, uint256 lakeCapacity, uint256 lakeDepth) public returns(bool success) {\r\n        require(!isLakeRecordExisting(lakeID));\r\n        numLakeRecord++;\r\n        lakeRecord[lakeID].lakeAreaSqrFt = lakeAreaSqrFt;\r\n        lakeRecord[lakeID].lakeCapacity = lakeCapacity;\r\n        lakeRecord[lakeID].lakeDepth = lakeDepth;\r\n        lakeRecord[lakeID].isLakeRecord = true;\r\n        return true;\r\n    }\r\n\r\n    function deleteLakeRecord(uint lakeID) public onlyOwner returns(bool success) {\r\n        numLakeRecord--;\r\n        lakeRecord[lakeID].isLakeRecord = true;\r\n        return true;\r\n    }\r\n\r\n    function updateEntity(uint lakeID,uint256 lakeAreaSqrFt, uint256 lakeCapacity, uint256 lakeDepth) public onlyOwner returns(bool success) {\r\n        require(isLakeRecordExisting(lakeID));\r\n        lakeRecord[lakeID].lakeAreaSqrFt = lakeAreaSqrFt;\r\n        lakeRecord[lakeID].lakeCapacity = lakeCapacity;\r\n        lakeRecord[lakeID].lakeDepth = lakeDepth;\r\n        return true;\r\n    }\r\n\r\n    function getLakeRecord(uint lakeID) public constant returns(uint256, uint256, uint256) {\r\n        return(lakeRecord[lakeID].lakeAreaSqrFt, lakeRecord[lakeID].lakeCapacity, lakeRecord[lakeID].lakeDepth);\r\n    }\r\n\r\n    function getLakeRecordNum() public constant returns(uint) {\r\n        return numLakeRecord;\r\n    }\r\n\r\n    function killContract() public onlyOwner{\r\n        selfdestruct(owner);\r\n    }\r\n}\r\n",
  "sourcePath": "E:\\Blockchain Practice Space\\truffle projects\\LakeLife_version2\\contracts\\LakeLifeContract.sol",
  "compiler": {
    "name": "solc",
    "version": "0.4.24+commit.e67f0147.Emscripten.clang"
  },
  "schemaVersion": "2.0.1",
  "updatedAt": "2018-09-14T13:14:59.765Z"
}