{
  "contractName": "Owned",
  "abi": [
    {
      "constant": true,
      "inputs": [],
      "name": "owner",
      "outputs": [
        {
          "name": "",
          "type": "address"
        }
      ],
      "payable": false,
      "stateMutability": "view",
      "type": "function"
    },
    {
      "inputs": [],
      "payable": false,
      "stateMutability": "nonpayable",
      "type": "constructor"
    },
    {
      "constant": false,
      "inputs": [
        {
          "name": "newOwner",
          "type": "address"
        }
      ],
      "name": "transferOwnership",
      "outputs": [],
      "payable": false,
      "stateMutability": "nonpayable",
      "type": "function"
    }
  ],
  "bytecode": "0x608060405234801561001057600080fd5b50336000806101000a81548173ffffffffffffffffffffffffffffffffffffffff021916908373ffffffffffffffffffffffffffffffffffffffff1602179055506101da806100606000396000f30060806040526004361061004c576000357c0100000000000000000000000000000000000000000000000000000000900463ffffffff1680638da5cb5b14610051578063f2fde38b146100a8575b600080fd5b34801561005d57600080fd5b506100666100eb565b604051808273ffffffffffffffffffffffffffffffffffffffff1673ffffffffffffffffffffffffffffffffffffffff16815260200191505060405180910390f35b3480156100b457600080fd5b506100e9600480360381019080803573ffffffffffffffffffffffffffffffffffffffff169060200190929190505050610110565b005b6000809054906101000a900473ffffffffffffffffffffffffffffffffffffffff1681565b6000809054906101000a900473ffffffffffffffffffffffffffffffffffffffff1673ffffffffffffffffffffffffffffffffffffffff163373ffffffffffffffffffffffffffffffffffffffff1614151561016b57600080fd5b806000806101000a81548173ffffffffffffffffffffffffffffffffffffffff021916908373ffffffffffffffffffffffffffffffffffffffff160217905550505600a165627a7a72305820b645aad527f806c19eefde45fe6637480cb64e298194eca2ebd1af13dd4dfe1e0029",
  "source": "pragma solidity ^0.4.17;\r\n\r\ncontract Owned {\r\n    address public owner;\r\n\r\n    constructor() public {\r\n        owner = msg.sender;\r\n    }\r\n\r\n    modifier onlyOwner {\r\n        require(msg.sender == owner);\r\n        _;\r\n    }\r\n\r\n    function transferOwnership(address newOwner) public onlyOwner {\r\n        owner = newOwner;\r\n    }\r\n}\r\n\r\ncontract LakeLifeContract is Owned {\r\n\r\n    struct LakeRecord {\r\n        uint256 lakeAreaSqrFt;\r\n        uint256 lakeCapacity;\r\n        uint256 lakeDepth;\r\n        bool isLakeRecord;\r\n    }\r\n\r\n    uint numLakeRecord;\r\n\r\n    mapping (uint => LakeRecord) public lakeRecord;\r\n\r\n    function isLakeRecordExisting(uint lakeID) public constant returns(bool isIndeed) {\r\n        return lakeRecord[lakeID].isLakeRecord;\r\n    }\r\n\r\n    function newLakeRecord(uint lakeID, uint256 lakeAreaSqrFt, uint256 lakeCapacity, uint256 lakeDepth) public returns(bool success) {\r\n        require(!isLakeRecordExisting(lakeID));\r\n        numLakeRecord++;\r\n        lakeRecord[lakeID].lakeAreaSqrFt = lakeAreaSqrFt;\r\n        lakeRecord[lakeID].lakeCapacity = lakeCapacity;\r\n        lakeRecord[lakeID].lakeDepth = lakeDepth;\r\n        lakeRecord[lakeID].isLakeRecord = true;\r\n        return true;\r\n    }\r\n\r\n    function deleteLakeRecord(uint lakeID) public onlyOwner returns(bool success) {\r\n        numLakeRecord--;\r\n        lakeRecord[lakeID].isLakeRecord = true;\r\n        return true;\r\n    }\r\n\r\n    function updateEntity(uint lakeID,uint256 lakeAreaSqrFt, uint256 lakeCapacity, uint256 lakeDepth) public onlyOwner returns(bool success) {\r\n        require(isLakeRecordExisting(lakeID));\r\n        lakeRecord[lakeID].lakeAreaSqrFt = lakeAreaSqrFt;\r\n        lakeRecord[lakeID].lakeCapacity = lakeCapacity;\r\n        lakeRecord[lakeID].lakeDepth = lakeDepth;\r\n        return true;\r\n    }\r\n\r\n    function getLakeRecord(uint lakeID) public constant returns(uint256, uint256, uint256) {\r\n        return(lakeRecord[lakeID].lakeAreaSqrFt, lakeRecord[lakeID].lakeCapacity, lakeRecord[lakeID].lakeDepth);\r\n    }\r\n\r\n    function getLakeRecordNum() public constant returns(uint) {\r\n        return numLakeRecord;\r\n    }\r\n\r\n    function killContract() public onlyOwner{\r\n        selfdestruct(owner);\r\n    }\r\n}\r\n",
  "sourcePath": "E:\\Blockchain Practice Space\\truffle projects\\LakeLife_version2\\contracts\\LakeLifeContract.sol",
  "compiler": {
    "name": "solc",
    "version": "0.4.24+commit.e67f0147.Emscripten.clang"
  },
  "schemaVersion": "2.0.1",
  "updatedAt": "2018-09-14T13:14:59.762Z"
}